:1000000004C413C412C411C410C40FC40EC40DC45C
:100010000CC40BC40AC43CC471C407C406C405C4E0
:1000200004C403C402C401C400C44CC55CC55BC5A0
:100030005AC559C558C557C556C555C541C553C5F7
:1000400052C551C550C54BC54EC54DC544C53FC52C
:100050004AC53FC542C547C546C543C536C50D0A55
:1000600000082008002073656E742C2020726563E0
:1000700065697665643D000D0A5B485D2D68656CB9
:1000800070203E000D0A202020202020202020204B
:1000900000205B696C6C6567616C206368617261EC
:1000A0006374657220656E74657265645D07002017
:1000B0004E65770020284D5342206669727374297B
:1000C0000020284C5342206669727374290020284E
:1000D00070756C7365206C6F772900202870756CC3
:1000E00073652068696768290020286F66662900A3
:1000F0002020200020636F6E6669677572617469E5
:100100006F6E20736176656400436F6E6669677514
:10011000726174696F6E206C6F61646564202D007C
:100120004E6F20636F6E66696775726174696F6E7A
:100130002073746F7265642C2064656661756C74DD
:1001400073207573656407005374617475733A2086
:1001500000000053434B3D000000000000005353DB
:100160003D00000000000000004175746F3D00007C
:1001700000000000426974204F726465723D004DBA
:100180006F64653D0000000000000D0A0D0A0000CC
:10019000000000000000000000000000000000005F
:1001A000000000000000000000000000000000004F
:1001B000000000000000000000000000000000003F
:1001C000000000000000000000002A2A2A2A2A2A33
:1001D000205350492047617465776179202D20555F
:1001E0005341525420746F20535049204D61737411
:1001F000657220427269646765202A2A2A2A2A2A9F
:100200000D0A00000000000000002A2A2A2A2A2ADB
:100210002056312E31202020416E647920476179AB
:100220006E65203230303420202020474420546531
:1002300063686E696B2C20554B202A2A2A2A2A2AA9
:100240000D0A0D0A000000000000456E7465722062
:1002500068657820656E636F646564206279746593
:1002600020746F2073656E64207669612053504955
:100270002C206F7220636F6D6D616E64733A0D0A8E
:10028000000000000000000000005B3F5D202D200A
:1002900053686F772063757272656E742073746132
:1002A0007475730D0A0000000000000000000000DB
:1002B000000000000000000000000000000000003E
:1002C000000000000000000000005B585D202D20B1
:1002D000457874656E64656420686578207365711F
:1002E00075656E63652028206D6178696D756D2078
:1002F000313620627974657320290D0A00000000F0
:10030000000000000000000000005B515D202D2077
:1003100053434B20667265712028202D2D2D2D53BF
:10032000504932583D302D2D2D2D2D202020202DAF
:100330002D2D2D53504932583D312D2D2D2D2D2051
:10034000290D0A00000000000000202020202020AD
:100350002020202020202020202820303D462F341F
:100360002020203932312E366B487A20202020344C
:100370003D462F322020312E383433324D487A20FA
:10038000290D0A000000000000002020202020206D
:100390002020202020202020202820313D462F31E1
:1003A0003620203233302E346B487A2020202035FE
:1003B0003D462F382020203436302E386B487A20A6
:1003C000290D0A000000000000002020202020202D
:1003D0002020202020202020202820323D462F369B
:1003E0003420202035372E366B487A2020202036C6
:1003F0003D462F333220203131352E326B487A2062
:10040000290D0A00000000000000202020202020EC
:100410002020202020202020202820333D462F315E
:100420003238202032382E386B487A20202020376E
:100430003D462F363420202035372E366B487A2023
:10044000290D0A000000000000005B535D202D20F4
:10045000536C6176652053656C6563742070696EBA
:10046000206C6576656C2028303D6C6F772C2031D0
:100470003D68696768290D0A00000000000000005F
:10048000000000000000000000005B505D202D20F7
:100490004175746F2D746F67676C652053532063CB
:1004A0006F6E74726F6C2028303D6C6F772C20312A
:1004B0003D686967682C20323D6F6666290D0A0029
:1004C000000000000000000000005B545D202D20B3
:1004D000426974205472616E736D697373696F6ED3
:1004E000204F726465722028303D4D53422066696A
:1004F0007273742C20313D4C5342206669727374C0
:10050000290D0A000000000000005B4D5D202D2039
:1005100053504920436C6F636B204D6F64652020FE
:10052000202020202020202830203A2031203A206E
:1005300032203A2033290D0A00000000000000009C
:1005400000000000000000000000202020202020EB
:100550004D6F646520204C656164696E672D45644C
:1005600067652020202020547261696C696E672DB8
:100570004564676520202043504F4C20435048413C
:100580000D0A000000000000000020202020202094
:1005900020302020202053616D706C6528526973D3
:1005A000696E672920202053657475702028466184
:1005B0006C6C696E67292020203020202020300DAF
:1005C0000A00000000000000000020202020202061
:1005D00020312020202053657475702028526973C3
:1005E000696E672920202053616D706C6528466113
:1005F0006C6C696E67292020203020202020310D6E
:100600000A00000000000000000020202020202020
:1006100020322020202053616D706C652846616C6B
:100620006C696E67292020536574757020285269A3
:1006300073696E6729202020203120202020300D72
:100640000A000000000000000000202020202020E0
:100650002033202020205365747570202846616C5B
:100660006C696E6729202053616D706C6528526932
:1006700073696E6729202020203120202020310D31
:100680000A0000000000000000005B575D202D20E4
:1006900057726974652028736176652920636F6ECF
:1006A00066696775726174696F6E20286175746F11
:1006B000206C6F6164656420617420726573657479
:1006C000290D0A0D0A0000000000202028393231CF
:1006D0002E366B487A2020466F73632F34202D20EE
:1006E000332E363836344D487A207874616C2900C0
:1006F00000002020283233302E346B487A202046E8
:100700006F73632F3136202D20332E363836344D1B
:10071000487A207874616C29000020202835372E13
:10072000366B487A2020466F73632F3634202D2095
:10073000332E363836344D487A207874616C29006F
:10074000000020202832382E386B487A2020466F4F
:1007500073632F313238202D20332E363836344D06
:10076000487A207874616C290000202028312E38C6
:100770003433324D487A2020466F73632F32202D58
:1007800020332E363836344D487A207874616C29FF
:1007900000002020283436302E386B487A2020463E
:1007A0006F73632F38202D20332E363836344D4862
:1007B0007A207874616C29000000202028313135BE
:1007C0002E326B487A2020466F73632F3332202DF0
:1007D00020332E363836344D487A207874616C29AF
:1007E000000020202835372E366B487A2020466FAF
:1007F00073632F3634202D20332E363836344D484F
:100800007A207874616C2900000011241FBECFE5A6
:10081000D2E0DEBFCDBF11E0A0E6B0E001C01D9286
:10082000A536B107E1F705D14AC6EACBCF93DF93EE
:1008300000D01F92CDB7DEB79B838A8380E490E01F
:100840002A813B81232F3327FC01208389E290E01A
:100850002A81FC0120838AE290E028E9FC012083C0
:1008600080E490E026E8FC0120831982898180934E
:10087000E10089818093E00089818093630189810F
:10088000809362010F900F900F90DF91CF910895A8
:100890001F920F9200905F000F9211242F938F935D
:1008A0009F93EF93FF93CF93DF9300D0CDB7DEB745
:1008B0008CE290E0FC01808189838091E0008F5F71
:1008C0008F778A838A818093E0008091E1008A811A
:1008D000882F90E0805A9F4F2981FC0120830F9040
:1008E0000F90DF91CF91FF91EF919F918F912F9179
:1008F0000F9000925F000F901F9018951F920F921B
:1009000000905F000F9211242F933F938F939F933A
:10091000EF93FF93CF93DF931F92CDB7DEB7909104
:100920006201809163019817A1F0809163018F5F4C
:100930008F7789838981809363018CE290E029819C
:10094000222F30E02E513F4FF9012081FC012083FE
:1009500009C08AE290E02AE230E0F90120812F7D8F
:10096000FC0120830F90DF91CF91FF91EF919F9138
:100970008F913F912F910F9000925F000F901F90E9
:100980001895CF93DF931F92CDB7DEB700009091FB
:10099000E0008091E1009817D1F38091E1008F5F32
:1009A0008F77898389818093E1008981882F90E006
:1009B000805A9F4FFC0180810F90DF91CF91089565
:1009C000CF93DF9300D0CDB7DEB78A8380916201E9
:1009D0008F5F8F77898300008091630199819817D9
:1009E000D9F38981882F90E08E519F4F2A81FC0195
:1009F00020838981809362018AE290E02AE230E0DC
:100A0000F90120812062FC0120830F900F90DF917B
:100A1000CF910895CF93DF93CDB7DEB72091E0005B
:100A20009091E10081E0291709F480E0DF91CF91F6
:100A30000895CF93DF931F92CDB7DEB78BE090E0A0
:100A4000F5DEEBD481E0D3D380916401897F8460AB
:100A50008093640178948EE590E051D08EE590E02B
:100A60004ED08AEC91E04BD08AE092E048D08EE5FF
:100A700090E045D095D487E790E041D05DD0898360
:100A80008981992787FD9095FCD4009719F0898179
:100A900082D034C08981992787FD9095AA2797FD38
:100AA000A095BA2F4FE350E029E130E0841B950B6D
:100AB00028173907C0F08B5E9F4F8F939F9308953F
:100AC000BFD01CC081E0DED019C0B3D117C029D37C
:100AD00015C071D313C0B4D311C0D6D30FC004D482
:100AE0000DC037D40BC08981992787FD9095D4D448
:100AF000009721F081E690E002D0BDCFBCCFCF932C
:100B0000DF9300D0CDB7DEB79A8389830AC089818D
:100B10009A81FC01849154DF89819A8101969A839C
:100B2000898389819A81FC018491882381F70F90C0
:100B30000F90DF91CF910895CF93DF931F92CDB7A0
:100B4000DEB71FDF89838981992787FD9095ACD413
:100B500089838981992787FD90959ED4009711F00C
:100B600089812EDF89810F90DF91CF910895CF93F6
:100B7000DF931F92CDB7DEB789838981805D89833A
:100B800089818A331CF08981895F898389810F90EB
:100B9000DF91CF910895CF93DF9300D0CDB7DEB72B
:100BA0008A838A818A331CF08A8187508A838A816A
:100BB00080538A838A81992787FD909582959295A3
:100BC000907F9827807F98278A83B6DF89838981E1
:100BD000992787FD909555D4009751F189818A33E3
:100BE0001CF0898187508983898180538983998109
:100BF0008A81892B898389812AD4898385E690E03B
:100C00007EDF8981992787FD9095807F992795952B
:100C100087959595879595958795959587958A83D9
:100C20008A81A5DFCDDE89818F70A1DFC9DE03C097
:100C300081E990E064DF0F900F90DF91CF910895EC
:100C4000CF93DF931F92CDB7DEB7198212C089818F
:100C5000882F90E000249695879507949695879520
:100C60000794982F802D86579E4F49DF89818F5F8B
:100C700089838981853158F380E004D00F90DF911A
:100C8000CF910895CF93DF9300D01F92CDB7DEB7F9
:100C90008B8319828B81813011F480E291DE89810E
:100CA000282F30E04BE0429FC001439F900D11245C
:100CB000885B9E4F24DF898191E0980F9983882F6C
:100CC00090E08330910509F44AC0843091053CF4EA
:100CD0008130910569F08230910591F199C084309D
:100CE000910509F45CC08530910509F482C090C07B
:100CF0008DE290E0FC018081282F23708EE290E04D
:100D0000FC018081882F90E081709927880F991FBE
:100D1000880F991F822B8A838A8129DF51DE8B817C
:100D2000813069F48A81282F30E048E2429FC00177
:100D3000439F900D11248653994FE1DE69C068C02E
:100D400088E390E0FC018081882F90E084709927EF
:100D500095958795959587950ADF32DE59C08091E4
:100D600064018695837003DF2BDE8B818130B1F4C3
:100D7000809164018670882321F48EEC90E0BFDEC0
:100D80000DC0809164018670823021F48BED90E07B
:100D9000B6DE04C089EE90E0B2DE3AC039C08DE222
:100DA00090E0FC018081882F90E0807299279595D2
:100DB000879595958795959587959595879595951B
:100DC00087958A838A81D3DEFBDD8B81813031F484
:100DD0008A81882319F484EB90E091DE8B81813045
:100DE00039F48A81882321F081EC90E088DE10C0FC
:100DF0000FC08DE290E0FC018081882F90E08C7024
:100E000099279595879595958795B1DED9DD0BC086
:100E10008B81813021F484E890E071DE40CF80EF57
:100E200090E06DDE3CCF0F900F900F90DF91CF914F
:100E30000895CF93DF93CDB7DEB7E3970FB6F8945D
:100E4000DEBF0FBECDBF1A8219826AC089819A8126
:100E500081709927009711F48AE3B2DD6DDE482F87
:100E60009E012C5F3F4F89819A81820F931FFC0165
:100E700040839E012C5F3F4F89819A81820F931F8F
:100E8000FC0180818D3009F451C09E012C5F3F4FE1
:100E900089819A81820F931FFC018081992787FDA8
:100EA0009095EFD2009721F481E990E028DE30C1DF
:100EB0009E012C5F3F4F89819A81820F931FFC0115
:100EC00080818A33A4F09E012C5F3F4F89819A81F3
:100ED000820F931FFC0180818750482F9E012C5F59
:100EE0003F4F89819A81820F931FFC0140839E01AD
:100EF0002C5F3F4F89819A81820F931FFC01808173
:100F00008053482F9E012C5F3F4F89819A81820F29
:100F1000931FFC01408389819A8101969A8389837A
:100F200089819A81803291050CF490CF89819A81D0
:100F300099230CF40196959587958B838091640194
:100F40008670882311F481E052D18091640186700B
:100F5000823011F480E04BD11A82198230C089812D
:100F60009A81880F991F9E012C5F3F4F820F931F1C
:100F7000FC018081992787FD909582959295907FBD
:100F80009827807F9827482F89819A81880F991FF9
:100F900001969E012C5F3F4F820F931FFC018081C1
:100FA000482B9E012C5F3F4F89819A81820F931FAE
:100FB000FC01408389819A8101969A8389838B8180
:100FC000282F332727FD309589819A81821793072F
:100FD00034F2809164018670843029F0809164013C
:100FE0008695837004D11A82198219C09E012C5FE4
:100FF0003F4F89819A81820F931FFC01808127D204
:10100000482F9E012C5D3F4F89819A81820F931F4B
:10101000FC01408389819A8101969A8389838B811F
:10102000282F332727FD309589819A8182179307CE
:10103000ECF2809164018670882311F481E0D7D0AE
:10104000809164018670823011F480E0D0D01A82E1
:10105000198253C084E890E052DD9E012C5F3F4F1F
:1010600089819A81820F931FFC018081992787FDD6
:101070009095807F992795958795959587959595D6
:1010800087959595879573DD9BDC9E012C5F3F4F7F
:1010900089819A81820F931FFC0180818F7067DDA7
:1010A0008FDC85E690E02BDD9E012C5D3F4F898132
:1010B0009A81820F931FFC018081992787FD90956B
:1010C000807F99279595879595958795959587958F
:1010D000959587954CDD74DC9E012C5D3F4F898191
:1010E0009A81820F931FFC0180818F7040DD68DC44
:1010F00089819A8101969A8389838B81282F33274E
:1011000027FD309589819A81821793070CF4A2CF2D
:10111000E3960FB6F894DEBF0FBECDBFDF91CF913F
:101120000895CF93DF931F92CDB7DEB705DD898396
:1011300089818053898389818830B4F58DE290E07C
:101140002DE230E0F90120812C7FFC0120838DE22B
:1011500090E02DE230E0F9012081322F29812370C7
:10116000232BFC0120838981992787FD909584702A
:101170009927009751F08EE290E02EE230E0F901DD
:1011800020812160FC01208309C08EE290E02EE2E4
:1011900030E0F90120812E7FFC0120838FEA90E06E
:1011A000AEDC81E06FDD03C081E990E0A8DC0F9048
:1011B000DF91CF910895CF93DF931F92CDB7DEB724
:1011C000BBDC89838981805389838981823044F49F
:1011D00089810DD08FEA90E092DC81E053DD03C07D
:1011E00081E990E08CDC0F90DF91CF910895CF934F
:1011F000DF931F92CDB7DEB789838981882351F0B1
:1012000088E390E028E330E0F90120812460FC01CC
:10121000208309C088E390E028E330E0F9012081D1
:101220002B7FFC0120838981817081709091640102
:101230009E7F892B809364010F90DF91CF91089559
:10124000CF93DF931F92CDB7DEB776DC8983898198
:10125000805389838981833084F48981837083708A
:10126000880F90916401997F892B809364018FEAA4
:1012700090E045DC81E006DD03C081E990E03FDCE1
:101280000F90DF91CF910895CF93DF931F92CDB749
:10129000DEB752DC898389818053898389818230DA
:1012A000E4F48981882351F08DE290E02DE230E072
:1012B000F90120812062FC01208309C08DE290E0C9
:1012C0002DE230E0F90120812F7DFC0120838FEA9F
:1012D00090E015DC81E0D6DC03C081E990E00FDC12
:1012E0000F90DF91CF910895CF93DF931F92CDB7E9
:1012F000DEB722DC898389818053898389818430A8
:101300000CF58DE290E02DE230E0F9012081237FA1
:10131000FC0120838DE290E02DE230E0F901208194
:10132000422F2981332727FD3095220F331F220FAB
:10133000331F242BFC0120838FEA90E0E0DB81E067
:10134000A1DC03C081E990E0DADB0F90DF91CF915F
:101350000895CF93DF93CDB7DEB7F8948DE290E098
:10136000FC018081809300008EE290E0FC0180818E
:1013700080930100809164018093020090910000AD
:1013800080910100980F80910200890F81958093D0
:101390000300789484EF90E0B2DBDF91CF91089561
:1013A000CF93DF93CDB7DEB780910000282F30E0D8
:1013B00080910100882F90E0280F391F8091020052
:1013C000882F90E0280F391F80910300882F90E02C
:1013D000820F931F99270097D1F48DE290E020911E
:1013E0000000FC0120838EE290E020910100FC01CE
:1013F0002083809102008093640180916401817058
:10140000F6DE89E091E07BDB81E03CDC03C080E23A
:1014100091E075DBDF91CF910895CF93DF93CDB746
:10142000DEB787E390E02CE2FC01208388E390E0C4
:1014300028E330E0F90120812460FC0120838DE263
:1014400090E021E5FC012083DF91CF910895CF93B7
:10145000DF931F92CDB7DEB789838FE290E02981B9
:10146000FC01208300008EE290E0FC018081882353
:10147000D4F78FE290E0FC0180810F90DF91CF9153
:101480000895911119C080538A5028F0865C8062BB
:1014900081568650B8F70895803209F091110CC03A
:1014A00080528F55E0F708959111089581568A5121
:1014B00008F4805285580895992788270895F8944C
:0214C000FFCF5C
:00000001FF
