:1000000014C01BC01AC019C018C017C016C015C034
:1000100014C013C012C011C010C00FC00EC00DC05C
:100020000CC00BC00AC009C008C011241FBECFE518
:10003000D2E0DEBFCDBF02D0EFC0E2CFCF93DF93DF
:10004000CDB7DEB728970FB6F894DEBF0FBECDBF91
:100050009E838D8378876F83809104009091050043
:10006000A0910600B091070089839A83AB83BC837B
:100070008091000090910100A0910200B0910300D6
:100080009C01AD0169817A818B819C8111D0DC0159
:10009000CB0189839A83AB83BC8380E090E0289670
:1000A0000FB6F894DEBF0FBECDBFDF91CF9108959C
:1000B0000BD078C069D028F06ED018F0952309F0E5
:1000C0005AC05FC01124A2C07ED0A0F3959FD1F387
:1000D000950F50E0551F629FF001729FBB27F00DF6
:1000E000B11D639FAA27F00DB11DAA1F649F66274B
:1000F000B00DA11D661F829F2227B00DA11D621F9A
:10010000739FB00DA11D621F839FA00D611D221F53
:10011000749F3327A00D611D231F849F600D211D37
:10012000822F762F6A2F11249F5750408AF0E1F0DA
:1001300088234AF0EE0FFF1FBB1F661F771F881F23
:1001400091505040A9F79E3F510570F014C05EC019
:100150005F3FECF3983EDCF3869577956795B7950E
:10016000F795E7959F5FC1F7FE2B880F911D969538
:10017000879597F9089597F99F6780E870E060E0A8
:1001800008959FEF80EC089500240A941616170630
:1001900018060906089500240A9412161306140678
:1001A00005060895092E0394000C11F4882352F0DB
:1001B000BB0F40F4BF2B11F460FF04C06F5F7F4F93
:1001C0008F4F9F4F089557FD9058440F551F59F07A
:1001D0005F3F71F04795880F97FB991F61F09F3F34
:1001E00079F087950895121613061406551FF2CF5D
:1001F0004695F1DF08C0161617061806991FF1CFAD
:1002000086957105610508940895E894BB276627D3
:0C0210007727CB0197F90895F894FFCFF1
:00000001FF
