:020000020000FC
:1000000001E00EBF0FE50DBF0EE005C02DC16FC0B2
:1000120073C18DC101BDD4D710D143D00FD658D1F1
:1000220000918000016000938000009181000064D3
:10003200009381006894F5D0DAD002E809BF10E09D
:100042000AE044D4A02E7894A8950FEFE016E0F3CE
:10005200009180000F7F00938000009181000F7B50
:10006200009381006894DDD0D2D5009180000E7F8C
:1000720000938000009181000F7F009381006894BB
:10008200D0D0B5D1A895923009F4A1D200918200C6
:10009200002309F0D7D500918D00002399F32ED6C5
:1000A200F1CF00E00BBB0FEF0ABB00E008BB0FE192
:1000B20007BB0FEF05BB00E004BB0CEF02BB00E384
:1000C20001BBD0E0C2E84ED4EE24DD24992488247A
:1000D20005D00FE702BF02E003BF0895002710E238
:1000E200D0E0C0E609931A95E9F70895FFB60F9399
:1000F2001F932F933F93CF93DF930FE702BFC3B2B8
:10010200BE2CE3940E2D0F7341F4AA94AA2029F475
:100112006ED010E00AE0DAD3A02EB69410F09598D3
:1001220017C0959AD0E0C0E61E2D16951F70C10F1C
:1001320008F4D39518812E2D26952F7008B3007FD1
:10014200022B20E100002A95E9F708BB1BBB3BC04C
:10015200DD2049F40C2D3FD0B6F5D3940B2D3DD0C4
:10016200902E8B2C30C00B2D08190AF40195202FEC
:10017200077049F501E0D01611F5269526952695CA
:1001820010E002E0A3D32017F0F00C2D24D0AEF43F
:100192000B2D23D0091589F4D0E0C2E818E0E9D389
:1001A200EF93FF93F1E0E0E31BE4119310E5119369
:1001B200B1D1329734D1FF91EF91D39404C00C2D79
:1001C2000F3F09F4DD24DF91CF913F912F911F91D1
:1001D2000F91FFBE1895E8940895869B1068879B3F
:1001E20010640770000F000F000F012B0895689430
:1001F2000090810007FEE8947EF0689400908000F1
:10020200002009F0E89400908100002009F0E894B1
:100212002EF068940DD004C005D002C0E89408D036
:1002220008950895949902C0949A0895949808950F
:1002320016F494980895949A089510E004E051D326
:1002420019BD08BD02E10FBD03E00EBD0FEF009323
:10025200B80008950093B8001093B9002093BA0033
:100262003093BB0008950F920F931F932F93CF9358
:10027200DF930FB678940091B8000F3F09F1009117
:10028200BA001091BB0001501040003020E012076C
:1002920099F40091B800069506950695D0E0C0E65F
:1002A200C00F08F4D39508811091B9000123088387
:1002B2000FEF0093B80004C01093BB000093BA0084
:1002C2000FBEDF91CF912F911F910F910F90189533
:1002D2000FE509B908E90AB9D0E0CCEB00E642D350
:1002E200D1E0C0E210E1002700931F01088B0993BF
:1002F2001A95E1F790E00895FFB60F93E8940CB1D8
:10030200083029F0903051F0913051F00AC010912C
:100312001F01112331F01A9510931F011FD001C044
:1003220027D00EF004E233D10F91FFBE1895FFB62D
:100332000F931F93CF93DF930091BC00002339F0FA
:10034200D0E0CCEB00E641D316F40CB901C05598CD
:10035200DF91CF911F910F91FFBE18950F930A3332
:1003620021F491E0002700931F0168940F910895F2
:100372000F931F932F933F93CF93DF936894D1E012
:10038200C0E210911F0120E230EC103188F4C10F5D
:1003920008F4D3950883139510931F010D3009F4C7
:1003A20092E0DF91CF913F912F911F910F9108958C
:1003B20090E000918000022B009380000091810068
:1003C200032B0093810068942CDFE894EACFEF932B
:1003D200FF93FFE0EEEC2AD0FF91EF910895EF93A7
:1003E200FF93FFE0E4ED22D0FF91EF9108950F9289
:1003F2000F931F930FB668940091810007FFE89452
:1004020016F4EDDF01C0E3DF00918000109181005E
:100412006894D4D00FBE1F910F910F9008950F9240
:100422000FB668940AD00FBE0F9008950F920FB6C0
:10043200E89403D00FBE0F9008950F921F920F936E
:100442001F932F93CF93DF93EF93FF931FB6D0E0C9
:10045200CCEB10E626F0C895002D319601C0019133
:10046200002349F02091BC002036E1F3F89481D2B8
:10047200559A1FBEEFCFFF91EF91DF91CF912F9150
:100482001F910F911F900F9008950F931F930024B7
:10049200112414E001910023B9F0003418F4003360
:1004A20098F006C00F7D073478F4013468F00753E2
:1004B2000F70000C111C000C111C000C111C000C04
:1004C200111C002A1A9531F71F910F9108950F936D
:1004D2001F932F9335960EF431962227229316F40A
:1004E2002DE0229324E00F930F700A3014F4005D84
:1004F20001C0095A02930F91169507951695079513
:1005020016950795169507952A9569F72F911F91CC
:100512000F9108950F932F933496222722932DE063
:10052200229322E00F930F700A3014F4005D01C091
:10053200095A02930F9106950695069506952A95F6
:1005420089F72F910F9108950F931F93EF93FF93C4
:10055200199109916894BBDF349619910991B7DF1B
:1005620034960991D7DF2597FF91EF911F910F9153
:1005720008950F921F9289DF1992099286DF1992CC
:10058200099283DF099225971F900F9008950F9289
:100592001F932F93CF93DF930FB6D0E0CCEB10E6EF
:1005A2002091BC002036E1F3F894E3D1559A0FBEB6
:1005B200DF91CF912F911F910F900895EF93FF93A9
:1005C200F1E0E0E384DF2BDFFF91EF9108950F93D9
:1005D2001F932F933F93CF93DF9328E030ECD1E02A
:1005E200C0E20991199100621062033659F0073690
:1005F20089F00037F9F0023709F1033719F10637AC
:1006020029F037C01536A9F529D12BC0153689F541
:1006120036D127C0153611F4D9D023C0103711F4C2
:1006220050D01FC0123611F471D01BC0193609F513
:1006320030D117C01B36E9F42AD013C01437C9F4DD
:100642004BD00FC0123611F44BD00BC0133611F43D
:100652007CD007C0153611F4DCD003C0103749F442
:10066200A7D090E0DF91CF913F912F911F910F91F1
:10067200089500918000022B009380000091810078
:10068200032B009381006894CCDDB1DEEACF0F9298
:100692000F93CF93DF93EF93FF93A9DE68940FB686
:1006A200F1E0E2E2F2DED0E0C2E818E0002DF894D8
:1006B20060D10FBEFF91EF91DF91CF910F910F901B
:1006C20008950F9394DE00E3C49901E360DF0DE027
:1006D2005EDF68940F910895F894E894A2DD8FCCC0
:1006E2000F921F922F92EF93FF932FB6F1E0E2E267
:1006F200CCDEFF27E12DE05A0082689478DE2FBE1F
:10070200FF91EF912F901F900F9008950F921F92DB
:100712002F920F932F933F93EF93FF932FB6F1E016
:10072200E2E2B3DEFF27E02DE05A008168945FDE4B
:100732001127689443DF2FBEFF91EF913F912F91D4
:100742000F912F901F900F9008950F920F932F9358
:100752003F93CF93DF93EF93FF930FB6D1E0C6E4BD
:10076200F1E0E2E206DF08E022E030ECD0E0CDE8A2
:10077200F1E0E6E4F89448D166F40FBE689437DEFF
:10078200FF91EF91DF91CF913F912F910F910F90B8
:1007920008950FBE00918000022B0093800000910B
:1007A2008100032B0093810068943BDDE894E7CF3E
:1007B2000F930991013311F4689403C0E894003354
:1007C20019F42FDD689413DE0F9108950F921F9292
:1007D2000F931F93CF93DF93EF93FF936894D1E02E
:1007E200C6E4F1E0E2E251DE0394000C002D112791
:1007F20078D0F1E0E6E468946ADEF9DD10DE689410
:10080200FF91EF91DF91CF911F910F911F900F9068
:1008120008950F921F920F931F932F933F93CF939D
:10082200DF93EF93FF93D1E0C6E4F1E0E2E22DDE45
:10083200012D32972ADE0395000F1127202D312D2D
:1008420072D0D5DD6894FF91EF91DF91CF913F9106
:100852002F911F910F911F900F9008950F93009168
:10086200800000700093800000918100007000936E
:1008720081006894D6DCBBDD0F9168940895B7DDE2
:10088200EF93FF93EAEDFFE0D1DDFF91EF916894E2
:1008920008952F920F931F932F93EF93FF932FB6E9
:1008A2006894A5DDF0E0E0E620E111910191E89481
:1008B20085DE2A952223C9F70DE069DE2FBEFF915E
:1008C200EF912F911F910F912F9008950F92E1991F
:1008D200FECF0FB6F8940EBBE09A0DB30FBE0F9089
:1008E20008950F922F93E199FECF0FB6F894202F1F
:1008F2000EBBE09A0DB30F93022F0F5F1F4F0EBB7B
:10090200E09A1DB30F910FBE2F910F9008950F9291
:10091200E199FECF0FB6F8940EBB2DBBE29AE19A95
:100922000FBE0F900895F3DF232F0F5F1F4FEFDFEE
:1009320008950F921F920F93EF93FF931FB6E199C1
:10094200FECF06E0F8942EBBE09A0DB201922F5F23
:100952003F4F0A95C1F71FBEFF91EF910F911F9074
:100962000F9008950F930027088309830A830F913C
:100972000895E8942F933F93AF93BF932881211753
:10098200B8F4BD2FAC2F39813F933D5FA30F08F41C
:10099200B3950C933F913395311708F03327398380
:1009A200239528836894BF91AF913F912F91089529
:1009B2002091800021602093800020918100206C92
:1009C2002093810068942DDCEECF1F932F93AF9379
:1009D200BF93E8941881112391F0BD2FAC2F2A8187
:1009E2002F932D5FA20F08F4B3952F912395201713
:1009F20008F022272A831A9518830C916894BF91D4
:100A0200AF912F911F9108950F921F932F93AF9340
:100A1200BF93E8941881101730F5BD2FAC2F2981B0
:100A22002F93022E220F220F200D2D5FA20F08F40A
:100A3200B39521912D9321912D9321912D93219164
:100A42002D9321912D9335972F912395201708F0FF
:100A520022272983139518836894BF91AF912F9110
:100A62001F910F90089510918000126010938000E2
:100A720010918100106C109381006894D2DBEDCF4D
:100A82000F921F932F93AF93BF93E8941881112372
:100A920001F12A812F93022E220F220F200D2D5FAA
:100AA200BD2FAC2FA20F08F4B3952D9121932D9158
:100AB20021932D9121932D9121932D91219335975E
:100AC2002F912395201709F422272A831A95188338
:100AD2006894BF91AF912F911F910F90089540009C
:100AE200580041025A0042045C0043065E0044087A
:100AF200600245186400461C6600470C68014810F5
:100B02006B01491E6E004A2078004B1470014C2282
:100B120073004D1A7500502C0003512D0003522E04
:100B22000003532F000354300003553100035632A3
:100B320000035733000358340003593500035A3673
:100B420000035B3700035C3800035D3900035E3A43
:100B520000035F3B0003603C0003613D0003623E13
:100B62000003633F00036440000328240004292596
:100B720000042A2600042B2700042C2800042D2917
:100B820000042E2A0004302B000468240004692586
:100B920000046A2600046B2700046C2800046D29F7
:100BA20000046E2A0004702B0004FFFFFFFF000206
:100BB2000100000000000000000000000000000131
:100BC2000200000000000000000000000000000021
:100BD20000000006090000050000000000000000FF
:100BE20000000002010000040000000000000000FC
:100BF2000000000A050000060900000000000000D5
:100C02000000000C0A0000050300000000001FB6EF
:100C1200F1E0E0E430E02CE008E0D0E0CDE889DE6D
:100C2200F894F2DE1FBE6AD0A895EEF70580002088
:100C3200B1F700918D000023E1F70895D0E0CDE8EF
:100C420091DE08950F931F932F933F93EF93FF939A
:100C520008E010918D001017C0F4D0E0C2E808E05F
:100C6200F894B3DE78948EF424E030ECF1E0E6E41C
:100C720020D05EF401E0008308E0D0E0CDE822E07D
:100C820030ECF894C1DE78943EF4FF91EF913F91FD
:100C92002F911F910F91089500918000022B0093D4
:100CA200800000918100032B009381006894B9DADF
:100CB200ECCF0F921F93CF93DF93EF93FF93E894C0
:100CC200DF2FCE2FFAE0E0EE1FEFC895011679F084
:100CD200001611F03496F9CF09923196C89509920F
:100CE2003196C89509923196C89509926894FF91F8
:100CF200EF91DF91CF911F910F9008950F93E89498
:100D02000091B8000F3FC1F50F921F932F933F93AD
:100D1200AF93BF93CF93DF93EF93FF93D0E0CDE8F0
:100D2200F1E0E6E408E0F894ABDE7894DEF4DF2F3D
:100D3200CE2FF1E0E0E300E5019303E4019304DC4C
:100D4200F1E0E0E36CDBFD2FEC2F0081003051F08D
:100D5200013019F0023021F005C010D067D00483B1
:100D6200A2D06894FF91EF91DF91CF91BF91AF91A3
:100D72003F912F911F910F900F9108951F932F93E1
:100D82003F93CF93DF93E8941181012F0695069547
:100D92000695D0E0C0E7C00F08F4D395088117701C
:100DA200238168941FD06894DF91CF913F912F9156
:100DB2001F910895010204081020408003060C18B8
:100DC2003060C000070E1C3870E000000F1E3C7837
:100DD200F000000001030300000000000102030014
:100DE200000000000F922F93EF93FF931EF4FDE09B
:100DF200E6ED02C0FDE0EEEDE20F08F4F395C895D2
:100E0200202DFDE0E6EB220F220F220F210FE20F31
:100E120008F4F395C8950021112319F006951A9547
:100E2200E9F7FF91EF912F910F9008950F922F9371
:100E3200EF93FF932381233070F4220F220F220FAE
:100E4200220F220FFBE0E0EB200FE20F08F4F395F4
:100E5200C895002D06C0243019F00095017001C01C
:100E620001E06894FF91EF912F910F9008950F92F6
:100E72002F93EF93FF93233078F4220F220F220F48
:100E8200220F220FFBE0E0EB205F200FE20F08F4BD
:100E9200F395C895102D01C011276894FF91EF9129
:100EA2002F910F9008950F921F922F923F920F93BE
:100EB2001F932F933F93CF93DF93D0E0C0E601813E
:100EC200102F0695069506951770C00F08F4D39556
:100ED200088138882381689451D0002E032D4ED08A
:100EE200302E002D2481112319F0220F1A95E9F7D3
:100EF200022B322A0883388A2381233099F1243045
:100F0200D9F0D0E0C0E60281102F0695069506952D
:100F12001770C00F08F4D3950481112EA8DF012E9B
:100F2200112D08812381E89429D0112319F0000C96
:100F32001A95E9F700290883243019F010E006E039
:100F420002C010E008E0CDDC102E212E0180102D11
:100F52002381177068940FEF11D0102F002D212DCF
:100F6200322D78D96894DF91CF913F912F911F91C3
:100F72000F913F902F901F900F9008950F921F9303
:100F82002F93EF93FF931EF4FDE0E6ED02C0FDE028
:100F9200EEEDE20F08F4F395C895202DFDE0E6EBA7
:100FA200220F220F220F210FE20F08F4F395C895AA
:100FB20000940021FF91EF912F911F910F900895BE
:100FC2000027009380000093810008952B4F4B204F
:100FD20000002D4552522000426164656E0D485753
:100FE2003A322E300D53573A322E320D32303035DE
:080FF2002D30342D30320D00CA
:00000001FF
